:100000000C94B0010C94D8010C94D8010C94D80134
:100010000C94D8010C94D8010C94D8010C94D801FC
:100020000C94D8010C94D8010C94D8010C94D801EC
:100030000C94D8010C94D8010C94D8010C94D801DC
:100040000C94F02B0C94D8010C94BE2B0C94982B90
:100050000C94D8010C94D8010C94D8010C94D801BC
:100060000C94D8010C94D8013F3F3F004449520002
:1000700043424D0052454C005553520050524700E8
:100080005345510044454C0039392C20554E4B4EB8
:100090004F574E2C30302C30300D0037342C20444C
:1000A00052495645204E4F542052454144592C3018
:1000B000302C30300D0037332C205443424D325316
:1000C000442042592059544D20323032342C3030A3
:1000D0002C30320D0036332C2046494C45204558F3
:1000E000495354532C30302C30300D0036322C20F4
:1000F00046494C45204E4F5420464F554E442C30D7
:10010000302C30300D0033302C2053594E54415890
:10011000204552524F522C30302C30300D003236A8
:100120002C2057524954452050524F544543542097
:100130004F4E2C30302C30300D0032332C205245B5
:100140004144204552524F522C30302C30300D005B
:1001500030312C2046494C4553205343524154439F
:100160004845442C30310D0030302C204F4B2C3082
:10017000302C30300D00424C4F434B5320465245FB
:10018000452E00840080007C007800740070006CB4
:1001900000680022203030203241002E2E2E6E6F5B
:1001A000206E616D650000000000250028002B0016
:1001B00001100B10E8079E34313039000000788DB3
:1001C0003EFF58208AFFA200BD70109DF505E8D0C3
:1001D000F7BD70119DF506E8E080D0F5A90085D443
:1001E000A90085D5A5D5C900D004A900F002A901B0
:1001F00085DAA90FA8A6AE20BAFFA90DA263A010A8
:1002000020BDFF20C0FFA9002090FFA900A62BA4BD
:100210002C4CF50555301F2F424F4F542E5432535E
:1002200044203506862D842E2088D8A9EE8D19FF0E
:10023000A9F18D15FFA9C48D12FFA9D08D13FFA9B7
:100240009020D2FF208BD8A90085EFA5DAF00320FB
:10025000188820BE8BA5D4C900D0034CEA8B4C7EF5
:1002600086859320CCFF78AD06FF48A9008D06FF58
:100270008DF3FE8DF0FE8DF2FE2CF2FE30FBADF024
:10028000FE859DAEF1FEA9408DF2FE8A2903F003A2
:100290006CFAFF2CF2FE10FBADF0FE859EA9008DDE
:1002A000F2FEADF1FE2903D045A5D5F008A5B48531
:1002B0009DA5B5859EA000ADF2FE30FBADF0FE9190
:1002C0009DC8AEF1FEA9408DF2FE8A2903D01FAD74
:1002D000F2FE10FBADF0FE919DC8AEF1FEA9008DBF
:1002E000F2FE8A2903D00798D0CDE69ED0C9A94056
:1002F0008DF2FE688D06FF589818659D859D9002C9
:10030000E69EA9FF8DF3FEA69DA49E186000000046
:100310000023002600290000000008000201000060
:10032000030407000000000000000000000000249B
:100330000027002A00010204081020408001020466
:10034000081020010204081020040404040404041A
:1003500004020202020202030303030303003A2C15
:1003600011241FBECFEFD8E0DEBFCDBF11E0A0E06B
:10037000B1E0E2E9F2E602C005900D92A237B107C2
:10038000D9F726E0A2E7B1E001C01D92AE39B2076D
:10039000E1F711E0C0EBD1E004C02197FE010E941B
:1003A000E530CF3AD107C9F70E94A32C0C9447310E
:1003B0000C940000653048F470E0660F771F680FFA
:1003C000791FFB018181928108956B3050F4655053
:1003D000770B660F771F680F791FFB01868597855E
:1003E00008956D3051F06B50770B660F771F680FD3
:1003F000791FFB01848D958D089590E080E008952C
:10040000FF920F931F93CF93DF93FB01EC019E01AB
:100410002F5F3F4F88818032A9F0D183C08317823C
:100420001682BE01DB019D919D01992351F19F32FE
:1004300041F190324CF480E0DF91CF911F910F9108
:10044000FF900895E901E3CF892F877F823299F3E6
:100450009A3389F3892F8F7B8C3369F382EC890F70
:10046000823048F39C3539F3BD016C1B7D0B9E3205
:1004700031F0903221F077836683B583A483B9018C
:10048000D1CF8681978101978F3F9105A0F6262FC6
:10049000972FEB018991BE018032C9F38F32B9F3F6
:1004A000DA012C9311969C9304811581208131816E
:1004B000DF011A96CF01459640E24D938A179B07BC
:1004C000E1F781E0E90198819E3209F480E0D901E9
:1004D0002F5F3F4F9C919E32D1F3980121503109FB
:1004E000A217B30720F4E90198819E32B9F740E0E2
:1004F00067E0C0E050E078E0A017B10708F044C022
:100500009C919E3241F42A173B0769F46AE0C8E0E7
:1005100070E11196F1CF9232A1F09C3791F0D5EABB
:10052000D90FD33070F0D6EDD90FD63010F49D32FC
:1005300041F4D6ECD90FD63020F0DFEDD90FDE35FF
:1005400028F0907C9038B1F580E0E3CF6C1740F450
:100550006A30C9F02A173B07B0F0D9011197F4CFE0
:10056000DFE9D90FDA3150F59052472BFF24F3948D
:10057000FC0ECE0FDF2FD11D9A87D6E0DF1508F0D5
:10058000F086CF2DC6CF80E09285903209F453CF0C
:10059000882329F0542309F042E041874DCF81E0C0
:1005A00081876085E60FF11D8EE7828781E383876F
:1005B00081E042CF80E09FE56C1750F2DFEBD90F6E
:1005C000DA31A0F6572BD2CFFC01538D448D252F65
:1005D00030E0842F90E0821B930B541710F0CF96DD
:1005E000089501970895FC01918D828D981761F00F
:1005F000A28DAE0FBF2FB11D5D968C91928D9F5F26
:100600009F73928F90E008958FEF9FEF0895FC0104
:10061000918D828D981731F0828DE80FF11D858DB7
:1006200090E008958FEF9FEF0895FC01918D228D4A
:10063000892F90E0805C9F4F821B91098F739927CF
:100640000895FC01A48DA80FB92FB11DA35ABF4F67
:100650002C91848D90E001968F739927848FA689C1
:10066000B7892C93A089B1898C91837080648C9315
:10067000938D848D981306C00288F389E02D8081C4
:100680008F7D80830895EF92FF920F931F93CF93F6
:10069000DF93EC0181E0888F9B8D8C8D98131AC0BD
:1006A000E889F989808185FF15C09FB7F894EE89A4
:1006B000FF896083E889F989808183708064808301
:1006C0009FBF81E090E0DF91CF911F910F91FF904C
:1006D000EF900895F62E0B8D10E00F5F1F4F0F73F4
:1006E0001127E02E8C8D8E110CC00FB607FCFACFAF
:1006F000E889F989808185FFF5CFCE010E94210329
:10070000F1CFEB8DEC0FFD2FF11DE35AFF4FF0827F
:100710009FB7F8940B8FEA89FB8980818062CFCFE5
:10072000CF93DF93EC01888D8823B9F0AA89BB8928
:10073000E889F9898C9185FD03C0808186FD0DC013
:100740000FB607FCF7CF8C9185FFF2CF808185FF34
:10075000EDCFCE010E942103E9CFDF91CF91089523
:1007600088E793E00E94150321E0892B09F420E03B
:10077000822F089580E090E0892B29F00E94B00339
:1007800081110C9400000895AF92BF92CF92DF9236
:10079000EF92FF920F931F93CF93DF936C017B0136
:1007A0008B01040F151FEB015E01AE18BF08C017C7
:1007B000D10759F06991D601ED91FC910190F0813A
:1007C000E02DC6010995892B79F7C501DF91CF91FD
:1007D0001F910F91FF90EF90DF90CF90BF90AF905F
:1007E0000895833081F028F4813099F08230A9F0A7
:1007F00008958730A9F08830C9F08430B1F4809131
:1008000080008F7D03C0809180008F77809380006F
:10081000089584B58F7784BD089584B58F7DFBCF0F
:100820008091B0008F778093B00008958091B000E0
:100830008F7DF9CFCF93DF93EAE2F3E08491E8E490
:10084000F3E0D491ECE5F3E0C491CC23A1F0811165
:100850000E94F103EC2FF0E0EE0FFF1FE35FFC4F6F
:10086000A591B491EC91ED2381E090E009F480E052
:10087000DF91CF91089580E090E0FACF1F93CF935E
:10088000DF93282F30E0F901E95EFC4F8491F901F4
:10089000EB5CFC4FD491F901E75BFC4FC491CC2396
:1008A000A9F0162F81110E94F103EC2FF0E0EE0F5A
:1008B000FF1FEA55FE4FA591B4918FB7F894EC91C4
:1008C000111108C0D095DE23DC938FBFDF91CF914B
:1008D0001F910895DE2BF8CFCF93DF9390E0FC01BA
:1008E000EB5CFC4F2491875B9C4FFC018491882337
:1008F000C9F090E0880F991FFC01E55DFC4FA591C0
:10090000B491FC01EA55FE4FC591D49161110DC01F
:100910009FB7F8948C91209582238C93888128230B
:1009200028839FBFDF91CF910895623051F49FB724
:10093000F8943C91822F809583238C93E8812E2B11
:10094000EFCF8FB7F894EC912E2B2C938FBFEACF7B
:100950008E50806480937C0080917A0080648093C4
:100960007A0080917A0086FDFCCF8091780090918A
:10097000790008953FB7F8948091CD019091CE0110
:10098000A091CF01B091D00126B5A89B05C02F3F03
:1009900019F00196A11DB11D3FBFBA2FA92F982FA5
:1009A0008827BC01CD01620F711D811D911D42E0A0
:1009B000660F771F881F991F4A95D1F708952FB7A3
:1009C000F8946091C9017091CA018091CB01909116
:1009D000CC012FBF0895CF93DF93FC01C081D1815B
:1009E0000E94DF04C61BD70B8D2F881F8827881F06
:1009F000DF91CF9108958EBD00000DB407FEFDCFAD
:100A00008EB50895FC01228193818091550288233F
:100A100061F08FB7F89430915502313089F43DB3CD
:100A20003093C7013DB33DBB8FBF2CBD9DBD81E061
:100A3000878360E085810E943E048FEF0C94FB0465
:100A40008093C701F2CF8FEF0C94FB040F931F9399
:100A5000CF93DF9300D0CDB7DEB78C010E94DF04C7
:100A6000600F711F7A8369830E9423058F3F71F0A5
:100A7000CE0101960E94EB048823B1F380E00F9031
:100A80000F90DF91CF911F910F91089581E0F7CFE3
:100A9000CF93DF93FC0127812223B9F0EC0161E0C1
:100AA00085810E943E048FEF0E94FB0480915502D5
:100AB000882351F09FB7F894209155028091C70187
:100AC000213031F48DBB9FBF1F82DF91CF910895FC
:100AD0008FBFFACF1F93CF93DF93EC0188E592E0AD
:100AE0000E942605182F882361F08DEF0E94FB04D9
:100AF000CE010E9448051886812FDF91CF911F916A
:100B000008958FE18E83CE010E944805F5CF0F93A3
:100B10001F93CF93DF938C01862FEA010E94FB0481
:100B2000FE0181918EBDDE5FEC17FD0741F08191E2
:100B3000000000000DB407FEFDCF8EBDF5CF0DB453
:100B400007FEFDCF8FEF0E94FB048FEF0E94FB0496
:100B50000E942305F80181878F71853059F081E269
:100B60008683C8010E94480580E0DF91CF911F91E4
:100B70000F91089581E0F9CFDF92EF92FF920F93EA
:100B80001F93CF93DF93EC01162F022FF32EE42E49
:100B9000D52E0E941F098823C1F18F81811103C0C6
:100BA000CE010E940205111128C0812F80640E948D
:100BB000FB048D2D0E94FB048E2D0E94FB048F2DC3
:100BC0000E94FB04802F0E94FB0487E8111101C0E2
:100BD00085E90E94FB040E9423051AE00E94230578
:100BE000898787FF02C01150C9F7DF91CF911F910C
:100BF0000F91FF90EF90DF9008951C30B1F28CE2DE
:100C000091E00E9426058111D0CF8FEFEECFAF92F9
:100C1000BF92CF92DF92EF92FF921F93CF93DF9319
:100C2000EC016A017B0159011F85112309F45EC0A3
:100C30008885823049F48B859C85AD85BE85C81634
:100C4000D906EA06FB0649F18A85A7019601833099
:100C500039F099E0220F331F441F551F9A95D1F7A1
:100C600069E1CE010E94BC05882389F08EE08E8365
:100C7000CE010E94480510E0812FDF91CF911F9196
:100C8000FF90EF90DF90CF90BF90AF90089582E0FB
:100C90008887CB86DC86ED86FE8688E592E00E941A
:100CA0002605811102C085E2E2CFA5016CEFCE01DD
:100CB0000E9487058823E1F28B859C85AD85BE85E2
:100CC0000196A11DB11D8B879C87AD87BE871F85AF
:100CD0001111D2CFCE01DF91CF911F91FF90EF90F4
:100CE000DF90CF90BF90AF900C946A058A858330D7
:100CF00039F089E0CC0CDD1CEE1CFF1C8A95D1F785
:100D0000A701960168E1CE010E94BC05882331F05D
:100D10008DE08E83CE010E944805AECFA5016EEF17
:100D2000CE010E9487058823A9F388E592E00E94FE
:100D30002605F82E84E2FF2061F320E030E0A901CF
:100D40006DE0CE010E94BC05882311F08AE0E1CF5E
:100D50000E9423058111FACFCE010E9448051F2D64
:100D60008BCFEF92FF921F93CF93DF93FC012081F3
:100D700011E020FF12C0EC017C01FBE0EF0EF11C42
:100D80004B815C816D817E81970189819A810E946E
:100D90000706182F811108C010E0812FDF91CF9135
:100DA0001F91FF90EF900895888181FD04C0888194
:100DB0008E7F8883F2CF4B815C816D817E818F81B4
:100DC0009885A985BA85480F591F6A1F7B1F97010F
:100DD00089819A810E9407068111E9CFDDCFCF93E7
:100DE000DF93EC01188620E030E0A9016CE00E945E
:100DF000BC05882349F089E08E83CE010E94480516
:100E000080E0DF91CF910895CE010E94480581E0F6
:100E1000F8CFAF92BF92CF92DF92EF92FF920F93F3
:100E20001F93CF93DF9300D0CDB7DEB78C016A015B
:100E30007B015901FC018085813049F483859485CB
:100E4000A585B6858C159D05AE05BF0571F1F80128
:100E50008285A7019601833039F089E0220F331F84
:100E6000441F551F8A95D1F762E1C8010E94BC0555
:100E70008823A1F08CE0F8018683C8010E94480510
:100E800080E00F900F90DF91CF911F910F91FF9015
:100E9000EF90DF90CF90BF90AF90089581E0F80180
:100EA0008087C386D486E586F6860E94DF04645D6B
:100EB0007E4F7A8369830E942305F80181878F3FE3
:100EC00041F4CE0101960E94EB048823A1F38EE148
:100ED000D2CF8E3F11F089E1CECF8FEF8EBDF501DD
:100EE000D501A150BE4F9FEFEA17FB0749F0000064
:100EF00000000DB407FEFDCF8EB59EBD8193F4CFEB
:100F00000DB407FEFDCF8EB58C93F80111860E94BB
:100F100023050E942305F80183859485A585B68560
:100F20000196A11DB11D83879487A587B687878504
:100F30008111A7CFC8010E94EF06A3CFCF92DF9205
:100F4000EF92FF921F93CF93DF93DC011196ED9107
:100F5000FC91EF2B51F490E080E0DF91CF911F9155
:100F6000FF90EF90DF90CF900895122F6A017B01E0
:100F7000EC018B819C81AD81BE818C159D05AE05F8
:100F8000BF0561F0CE010E94B106882321F312FF54
:100F90000CC01882CB82DC82ED82FE821370288125
:100FA000122B1883CE010B96D8CF9E01255F3F4FA1
:100FB000B701A60189819A810E9409078111E9CFB1
:100FC000CACF8F929F92AF92BF92CF92DF92EF9251
:100FD000FF920F931F93CF93909342048093410409
:100FE0001092460401E010E020E030E00093490454
:100FF00010934A0420934B0430934C049093630461
:1010000080936204109261048FEF9FEFDC01809364
:10101000640490936504A0936604B0936704662308
:1010200009F44BC020E040E050E0BA0181E694E0D2
:101030000E949E07009769F480E0CF911F910F9165
:10104000FF90EF90DF90CF90BF90AF909F908F90E8
:101050000895FC01E254FE4F2481222369F320818C
:101060002F7751F78A539E4FFC01C080D180E280D8
:10107000F38020E0B701A60181E694E00E949E077C
:10108000FC01892BC9F280898230B1F68385948571
:101090008115924089F69585909343048FEF890FCF
:1010A00080934404C0E081E0981769F0CF5FC930B5
:1010B00041F488E080934504BFCFC12CD12C760148
:1010C000D8CF880FF1CFC093450486899789B0E0C7
:1010D000A0E080934D0490934E04A0934F04B093EE
:1010E0005004892B8A2B8B2B61F484A195A1A6A196
:1010F000B7A180934D0490934E04A0934F04B093F6
:10110000500486859785A7019601280F391F411D38
:10111000511DDA01C9018093550490935604A093A0
:101120005704B0935804218932893093480420939E
:10113000470440914D0450914E0460914F047091CA
:1011400050044A015B01880C991CAA1CBB1C880D29
:10115000991DAA1DBB1D80935D0490935E04A0930E
:101160005F04B093600405E0220F331F0A95E1F796
:1011700021503E4F232F33272695820F931FA11D09
:10118000B11D8093510490935204A0935304B093E3
:10119000540483889488B12CA12C81149104A10457
:1011A000B10421F480A091A0A2A0B3A0C81AD90ACA
:1011B000EA0AFB0AC80CD91CEA1CFB1C04C0F69402
:1011C000E794D794C794CA95D2F7D701C601019680
:1011D000A11DB11D8093590490935A04A0935B0400
:1011E000B0935C0435EFC3163FE0D306E104F1048D
:1011F00020F48CE0809346041FCF85EFC8168FEF54
:10120000D806E104F10468F480E180934604409339
:1012100068045093690460936A0470936B0481E0DE
:101220000CCF84A595A5A6A5B7A580935D04909342
:101230005E04A0935F04B093600480E2E6CFFC01FB
:101240002085223011F40C946A05213011F40C949D
:10125000EF0681E00895CF93DF93109246048091CA
:10126000610480FD30C0109261048FEF9FEFDC01BC
:101270008093640490936504A0936604B09367041C
:10128000C0918C06D0918D062097D1F08C81882357
:10129000B9F0CE010E941F099FB7F89480915602C1
:1012A000882319F081508093560280915602811153
:1012B00005C08CB58F7B8CBD109255029FBF1C82E0
:1012C000DF91CF91089581E694E00E94B1068111EB
:1012D000CACFD6CF8F929F92AF92BF92CF92DF921A
:1012E000EF92FF920F931F934230510561057105F4
:1012F00060F480E01F910F91FF90EF90DF90CF900E
:10130000BF90AF909F908F900895FC01C08CD18CBE
:10131000E28CF38CC416D506E606F70650F34801B6
:1013200059016A018581803229F584899589A689C8
:10133000B78917E076956795579547951A95D1F730
:10134000480F591F6A1F7B1F23E0CF0180960E9420
:101350009E07009771F2CC0CDD1CCC0CDD1CF1E07B
:10136000DF228C0D9D1DFC0180829182A282B382BE
:1013700081E0C0CF803109F0BCCF448955896689AE
:1013800077894D0D511D611D711D23E0CF018096A0
:101390000E949E07009709F4ACCFCC0CDD1CF1E055
:1013A000DF22C80ED91EF60111830083E1CFCF9250
:1013B000DF92EF92FF920F931F93CF93DF93423010
:1013C00051056105710550F48FEFDF91CF911F91A9
:1013D0000F91FF90EF90DF90CF900895FC01C08CAB
:1013E000D18CE28CF38CC416D506E606F70660F3C2
:1013F00089016A01EC018581803299F5848995899A
:10140000A689B789E7E07695679557954795EA9558
:10141000D1F7480F591F6A1F7B1F22E0CE0180962B
:101420000E949E07009781F2CC0CDD1CCC0CDD1CC9
:10143000F1E0DF228C0D9D1DFC0180819181A28154
:10144000B381488D598D6A8D7B8D481759076A077E
:101450007B0730F1F80180839183A283B38381E01D
:10146000B4CF803109F0B0CF448955896689778936
:101470004D0D511D611D711D22E0CF0180960E940E
:101480009E07009709F4A0CFCC0CDD1CF1E0DF2211
:10149000C80ED91EF60180819181B0E0A0E0D1CFC5
:1014A00080E093CF9F92AF92BF92CF92DF92EF9264
:1014B000FF920F931F93CF93DF9300D000D0CDB74F
:1014C000DEB75C016A017B019E012F5F3F4FB701D0
:1014D000A601C5010E94D709982E87FD34C000E0FF
:1014E00010E09801B701A601C5010E946A0988238E
:1014F00051F1F5014085518562857385C416D50685
:10150000E606F70650F4F1E0CF1AD108E108F10839
:10151000F501C086D186E286F386C980DA80EB8049
:10152000FC809110D1CF0F900F900F900F90DF9112
:10153000CF911F910F91FF90EF90DF90CF90BF90D0
:10154000AF909F90089580E0EECFFC019C01255F55
:101550003F4F80E080FB879587F99191890FE217D3
:10156000F307C1F708954F925F926F927F928F9227
:101570009F92AF92BF92CF92DF92EF92FF920F9322
:101580001F93CF93DF93EC014A015B014C845D8490
:101590006E847F842881222309F45CC0488959899C
:1015A0006A897B89481559056A057B0581F0811494
:1015B0009104A104B10469F41C861D861E861F8651
:1015C000888A998AAA8ABB8A8A818F7D8A8381E0E8
:1015D00046C023FF2CC0888D998DAA8DBB8D8815A0
:1015E0009905AA05BB05B0F1EE81FF813481375F13
:1015F0007501640181E0C81AD108E108F108032EE1
:1016000004C0F694E794D794C7940A94D2F78A81D9
:1016100086FF36C08C8D9D8DAE8DBF8D8C0D9D1D32
:10162000AE1DBF1D8C879D87AE87BF87C9CF26FFA4
:10163000DBCFEE81FF818681978125E0880F991F9E
:101640002A95E1F7B0E0A0E088159905AA05BB0549
:1016500008F0B6CF4C865D866E867F8680E0DF918F
:10166000CF911F910F91FF90EF90DF90CF90BF909F
:10167000AF909F908F907F906F905F904F90089564
:10168000DB01CA010197A109B10904C0B695A7956C
:10169000979587953A95D2F7C816D906EA06FB06BC
:1016A00020F0452B462B472B49F527FF22C0848D80
:1016B000958DA68DB78D8C879D87AE87BF878E0150
:1016C000045F1F4FC114D104E104F10409F478CF81
:1016D0004C855D856E857F8598018E819F810E94F6
:1016E000D70991E0C91AD108E108F108181654F396
:1016F000B1CF8C8D9D8DAE8DBF8DDDCFC81AD90A2F
:10170000EA0AFB0ADCCFCF93DF93EC01262F4C894A
:101710005D896E897F898E819F8180960E949E0758
:10172000009759F02C813D812F70332745E0220F1F
:10173000331F4A95E1F7820F931FDF91CF910895F0
:10174000EF92FF920F931F93CF93DF93FC01EB0176
:101750009081992309F446C0907C61F08FE28883E0
:10176000198281E090E0DF91CF911F910F91FF905E
:10177000EF90089560E0CF010E94830BFC01009779
:1017800089F17C0190E068E030E0D7012C9138309D
:1017900091F4203209F160E12EE2492F50E08A01F4
:1017A0000F5F1F4F01311105E8F49F5F4C0F5D1F64
:1017B000DA012C930EC0BFEFEB1AFB0A8FEB820FFE
:1017C0008A3128F48485862311F0205EE6CF20320A
:1017D00021F73F5F3C30C9F6892F90E0C80FD91F31
:1017E0001882C1CF188290E080E0BDCF3F924F9227
:1017F0005F926F927F928F929F92AF92BF92CF92A1
:10180000DF92EF92FF920F931F93CF93DF9300D05D
:1018100000D0CDB7DEB75C01FC01448455846684FA
:10182000778486809780F401C084D184E284F38435
:10183000C414D504E604F704C0F47301620110E097
:10184000FFEFCF1ADF0AEF0AFF0AF401808D918DB6
:10185000A28DB38D8C159D05AE05BF0540F4111109
:1018600032C0C084D184E284F38411E0E9CF4C1407
:101870005D046E047F0439F19E012F5F3F4FB70175
:10188000A601C4010E94D70987FD1DC08823C1F2AB
:1018900089819A81AB81BC81892B8A2B8B2B81F624
:1018A000112329F0F401C086D186E286F3860FEF7A
:1018B0001FEF2FEF3FE0B701A601C4010E946A09A4
:1018C000382E811118C0312C832D0F900F900F905E
:1018D0000F90DF91CF911F910F91FF90EF90DF90CC
:1018E000CF90BF90AF909F908F907F906F905F90C0
:1018F0004F903F9008954114510461047104B9F46C
:10190000F501C486D586E686F786828141145104A6
:1019100061047104B1F0FFEF4F1A5F0A6F0A7F0A8A
:101920004C145D046E047F0479F08F7B0BC097012B
:101930008601B301A201C4010E946A098111E0CFAE
:10194000C2CF8064F5018283F50182818068828341
:10195000BBCFCF93DF93EC0180960E94B106882322
:1019600031F088819981DF91CF910C941F0980E03B
:10197000DF91CF910895CF93DF93FC012081211156
:1019800004C081E0DF91CF910895EC01828187FF4F
:1019900028C061E0CF010E94830BFC01892B29F450
:1019A00089818160898380E0EDCF8081853EC1F3AC
:1019B000888187738387888183FF08C0888D998D8C
:1019C000AA8DBB8D848F958FA68FB78F8C8D9D8DA3
:1019D000AE8DBF8D938F828FB58BA48B8A818F77CD
:1019E0008A838E819F810E94A90C8823C9F2C9CF66
:1019F000CF93DF93EC010E94BB0C18821A82DF9117
:101A0000CF9108950C960C94BB0CFC01848583FF48
:101A100017C084A195A1A6A1B7A1448D558D668D4F
:101A2000778D841B950BA60BB70B811520E89207C9
:101A3000A105B10520F08FEF9FE7A0E0B0E0089589
:101A400080E090E0DC01F1CF8F3591F08E3791F09E
:101A50009FE1980F9A3108F4805A9FE3980F9A31CA
:101A600008F480589FE9980F9A3128F4805208951D
:101A70008EE708958FE508959BB1937044E0849FAD
:101A800090011124922B9BB995B19C7F82958695EC
:101A900086958370892B85B9089589B123B1869580
:101AA000869590E4299F90011124822B089586B198
:101AB00083FB882780F9089598B19B7F44E0849F39
:101AC00090011124922B98B908951F93CF93DF931F
:101AD00000D0CDB7DEB7198281E08A830E94570D0E
:101AE0008130E1F711E08A81813849F08A818238BA
:101AF00031F08A81833819F08A81843851F480E08A
:101B00000E945C0D8A810F900F90DF91CF911F9101
:101B100008958A8187FDE7CF19821A8399818A8186
:101B20009817B9F30E944D0D89830E944D0D8A8349
:101B3000F5CF98B19C7F892B88B908951F93CF93D7
:101B4000DF931F92CDB7DEB7182F0E94570D81117A
:101B5000FCCF0E944D0D8983812F0E94990D81E059
:101B60000E945C0D0E94570D8130E1F780E00E94D9
:101B7000990D89810F90DF91CF911F9108958AB1BE
:101B80008C6F8AB984B1836084B908958AB18370F7
:101B90008AB984B18C7F84B90895CF93DF93D82F0D
:101BA000C62F0E94570D8111FCCF0E94BF0D8D2FB3
:101BB0000E943C0D8C2F0E94990D81E00E945C0DCB
:101BC0000E94570D8130E1F70E94C60D80E00E940F
:101BD000990D80E00E945C0D0E94570D8111FCCF91
:101BE00081E00E945C0D0E94570D8130E1F7DF918A
:101BF000CF910895FC011382128288EE93E0A0E059
:101C0000B0E084839583A683B783148615861686F1
:101C100086E491E091838083089540E050E0BA012A
:101C20000C94B30ADC016817790731F090E2FB01EC
:101C300001900D929A95E1F708950F931F93CF931A
:101C4000DF93EC018B01FB01828193819B838A836B
:101C500084819581A681B7818C839D83AE83BF8368
:101C600080859185A285B38588879987AA87BB8758
:101C7000CE010C96645F7F4F8617970721F00E9474
:101C8000120EF8011486CE01DF91CF911F910F91B2
:101C9000089590E080E00895FC01472F862F662389
:101CA00079F1808191819C012150310927303105E2
:101CB00030F570E02C5A3E4FF901208126171706A7
:101CC000F4F050E028E230E085309105A1F0C8F44E
:101CD000049799F125E130E06231710564F023E168
:101CE00030E0693171053CF021E130E06F31710580
:101CF00014F422E130E081E0241735070CF480E091
:101D000008958630910539F0079721F76E347105F3
:101D100014F06D5471092DE130E0683271055CF307
:101D20002BE130E06633710534F327E130E06134B4
:101D300071050CF729E130E0DECF6432710554F211
:101D400063527109C7CFCF92DF92EF92FF92272F94
:101D5000362F8430910509F469C030F4019760F59D
:101D600060E070E0CB013BC08630910509F4BAC059
:101D700008F4A8C00797A1F76E3408F4B3C03D5427
:101D800083E298E0A0E0B0E0432F50E0383208F062
:101D9000ADC0415051093DE1349FB001359F700DF8
:101DA0001124AB01770F660B770B840F951FA61FCD
:101DB000B71FBC01CD010FC0862F90E06231A0F4A7
:101DC000019735E1389FB001399F700D1124072E1E
:101DD000000C880B990B620F711D811D911DFF90E6
:101DE000EF90DF90CF900895693150F4429733E13E
:101DF000389FB001399F700D11246B597E4FE7CF8A
:101E00006F3150F4499732E1389FB001399F700D1E
:101E1000112466517E4FDBCF4F9731E1389FB001DF
:101E2000399F700D11246A5A7D4FD1CF80E090E028
:101E3000DC01643228F033528BEA92E0A0E0B0E09B
:101E4000432F50E0323198F44150510935E1349F2D
:101E50006001359FD00C11240D2C000CEE08FF08FA
:101E6000C80ED91EEA1EFB1EC701B601B4CF393118
:101E700068F44251510933E1349F6001359FD00C21
:101E800011243BE9C31A3EEFD30AE6CF3F3168F491
:101E90004951510932E1349F6001359FD00C112422
:101EA00046E1C41A4EEFD40AD7CF4F51510931E160
:101EB000349F6001359FD00C11245AEAC51A5DEF9A
:101EC000D50ACACF462F4150550B38E2349FB00196
:101ED000359F700D1124620F711D072E000C880BA9
:101EE000990B7DCF80E090E0DC014ECF363380F45B
:101EF000485251093BE1349FB001359F700D1124C8
:101F0000AB0145595B4F052E000C660B770B4DCF8F
:101F1000313460F44653510939E1349FB001359FA3
:101F2000700D1124AB014B515A4FEDCF4154510963
:101F300037E1349FB001359F700D1124AB0148503B
:101F4000594FE1CFFC01808181110EC080E2DF0199
:101F50001D928A95E9F777836683DB0115968C914C
:101F6000803121F0803239F080E0089580E4808370
:101F700081E08283089580E8FACFCF92DF92EF92DA
:101F8000FF920F93CF93DF93EC0180E2FE01119259
:101F90008A95E9F7FB01A681B781BF83AE835D8394
:101FA0004C83C48CD58CE68CF78CC886D986EA869F
:101FB000FB86FD01BB964F70552765E0440F551F0A
:101FC0006A95E1F7E40FF51F838583FD11C08773E0
:101FD00088839385987111F4886088830B83822F9E
:101FE0008370813009F445C038F0823009F43FC075
:101FF00018821A8280E033C081E08A838A8181FF5F
:1020000006C08881982F917199F780628883939692
:102010008D919D910D90BC91A02D8C8B9D8BAE8B45
:10202000BF8B84899589B0E0A0E0DC0199278827DF
:10203000428D538D70E060E0842B952BA62BB72B3F
:102040008C8F9D8FAE8FBF8F448D558D668D778D14
:10205000488F598F6A8F7B8F22FD0DC081E0DF9101
:10206000CF910F91FF90EF90DF90CF90089583E094
:10207000C4CF82E0C2CFCE010E94B30A882309F404
:10208000B7CFECCFAF92BF92CF92DF92EF92FF9299
:102090000F931F93CF93DF93EC01888186FF0DC0D0
:1020A00010E0812FDF91CF911F910F91FF90EF9062
:1020B000DF90CF90BF90AF90089588899989AA89C1
:1020C000BB8981159E4FAF41B10550F7CE010E94EB
:1020D000F60B182F882321F3EE81FF81CC84DD8459
:1020E000EE84FF8432E0C31AD108E108F10884814C
:1020F00004C0CC0CDD1CEE1CFF1C8A95D2F7808935
:102100009189A289B389C80ED91EEA1EFB1E00E080
:10211000A12C82E0B82EEE81FF8182810817B0F4F5
:1021200025E0B701A601400F511D611D711DCF01B2
:1021300080960E949E07009709F4B2CFFC0195019A
:10214000119221503040E1F70F5FE5CF848120E00C
:1021500032E002C0220F331F8A95E2F788899989FD
:10216000AA89BB89820F931FA11DB11D888B998BF2
:10217000AA8BBB8B96CF10920402E4EDF1E080E3D2
:10218000DF011D928A95E9F71092D3010895EF922D
:10219000FF920F931F93CF93DF93C82FE7E0F2E0F6
:1021A00081E1DF011D928A95E9F7EC2FF0E0EC5216
:1021B000FE4F8081803321F481818A3309F4CF5F1F
:1021C000EC2FF0E0EC52FE4F80818A3309F4CF5FB0
:1021D000E09004020C2F10E00C521E4F80E0D0E083
:1021E000CE1518F4882321F081E08093D10107C037
:1021F000F801F1908F01F1100BC01092D101809184
:10220000D101DF91CF911F910F91FF90EF90089531
:10221000FDE0FF1669F08F2D0E94240DED2FF0E0F8
:10222000E95FFD4F8083DF5F81E094E2F91280E097
:10223000CF5FD131A9F6D9CFCF92DF92EF92FF9243
:102240000F931F93CF93DF9300D0CDB7DEB71092DB
:10225000920610929506109296061092970610928A
:102260009806109294068AE08093930661E00E949B
:102270006C0461E0809193060E943E0482E58093A5
:102280009006109291061FB7F89480915602811122
:1022900027C0E3E5F3E08491EFE3F3E09491E82FC6
:1022A000F0E0EE0FFF1FE55DFC4FA591B491EC91BE
:1022B000E92321F461E08AE00E943E0461E08AE0C3
:1022C0000E946C048CB580618CBD8CB580648CBD23
:1022D00061E08DE00E946C0461E08BE00E946C0480
:1022E000809156028F5F809356021FBF81E08093DA
:1022F000920680919506811104C08EE896E00E94B6
:10230000020561E0809193060E943E041AE00E945B
:1023100023051150E1F760E0809193060E943E048E
:102320000E94DF046053784F7A83698320E030E0B5
:10233000A90160E08EE896E00E94BC05082F81307C
:10234000E9F0CE0101960E94EB04882379F381E045
:10235000809394068EE896E00E94480510928D06C0
:1023600010928C0680E00F900F90DF91CF911F911B
:102370000F91FF90EF90DF90CF9008952AEA31E01F
:1023800040E050E068E08EE896E00E94BC0582FDE7
:1023900011C014E00E942305809397061150D1F7D5
:1023A0008A3A29F1CE0101960E94EB04882331F389
:1023B00086E0CECF11E0C12CD12C760120E030E0B8
:1023C000A90167E38EE896E00E94BC05A70196018B
:1023D00069E28EE896E00E94BC05882379F0CE0180
:1023E00001960E94EB04882349F387E1B1CF12E004
:1023F000C12CD12CE12C80E4F82EE0CF1230C9F4AE
:1024000020E030E0A9016AE38EE896E00E94BC0576
:10241000882311F082E19CCF0E942305807C803CC0
:1024200009F413E00E9423050E9423050E9423055E
:10243000012F8EE896E00E94480580E58093900683
:1024400081E0809391060093980610929D068EE895
:1024500096E090938D0680938C068091940681116E
:1024600081CF61E08EE896E00E94E1078823A1F029
:102470008CE696E00E94F80C61E474E08CE696E04D
:102480000E94A20F882341F081E494E090935402CB
:102490008093530281E067CF60E080918C06909139
:1024A0008D060E94E107882309F45CCF8CE696E054
:1024B0000E94F80C61E474E08CE696E00E94A20FA2
:1024C0008111E2CF4FCF2F923F924F925F926F9246
:1024D0007F928F929F92AF92BF92CF92DF92EF92B4
:1024E000FF920F931F93CF93DF93CDB7DEB728975B
:1024F0000FB6F894DEBF0FBECDBF9E838D834B0118
:102500005A01DC0112968C9181FF1AC083FD20C014
:10251000A50170E060E0ED81FE8180899189A2894A
:10252000B38980959095A095B09565011F01FCE059
:102530002F0E311C84179507A607B70708F0E0C0D7
:10254000ED81FE81818181608183B12CA12C53C0FA
:10255000AD81BE8158964D915D916D917C915B9757
:10256000CD010E94B30A8111D3CFEACF91018F81AF
:1025700098850E94D70987FDE3CF811103C18D8122
:102580009E810E94F60B8111FDC0DACFED81FE81A4
:10259000848D958DA68DB78D0097A105B10581F429
:1025A000CF010E94F60B882359F2ED81FE818485CC
:1025B0009585A685B785848F958FA68FB78FE2C046
:1025C000ED81FE8184879587A687B787DBC021E0F0
:1025D00069C0ED81FE81808D918DA28DB38D8415B2
:1025E0009505A605B70538F4408E518E628E738E20
:1025F000828180688283C50128960FB6F894DEBF79
:102600000FBECDBFDF91CF911F910F91FF90EF9043
:10261000DF90CF90BF90AF909F908F907F906F9002
:102620005F904F903F902F900895EF81F885425032
:10263000510961097109848104C0440F551F661F47
:10264000771F8A95D2F780899189A289B389480F2B
:10265000591F6A1F7B1F80E092E0801B910B76015F
:102660008C159D0508F47C010115110509F0AFCF0B
:10267000AD81BE8150964D905D906D907C9053974A
:1026800058968D919D910D90BC91A02D481659069C
:102690006A067B0630F4AD81BE8112968C9185FF6F
:1026A00096CF25E0CF0180960E949E07009709F4FF
:1026B00047CFA701B401800F911F0E94F8300E0D83
:1026C0001F1D0115124051F4ED81FE818681978115
:1026D00080960E94B106882309F432CFED81FE81F5
:1026E00080899189A289B3898E0D9F1DA11DB11D7D
:1026F000808B918BA28BB38B8E0C9F1CCE18DF0826
:10270000ED81FE814088518862887388C114D104AC
:1027100009F45FCF8681978198878F83DC011396B8
:10272000FC90B301A20199E076956795579547957E
:102730009A95D1F7F42282011170F11023C04485DB
:102740005585668577850115110509F06ECF411510
:1027500051056105710509F419CF228126FF06CFC5
:10276000808D918DA28DB38D481659066A067B0621
:1027700008F0FCCE4F5F5F4F6F4F7F4F4487558708
:1027800066877787AD81BE811696ED91FC9117978C
:102790001C964D915D916D917C911F97425051090E
:1027A00061097109848104C0440F551F661F771F9A
:1027B0008A95D2F780899189A289B389840F951F60
:1027C000A61FB71FAC01BD014F0D511D611D711D2D
:1027D0000115110509F03FCFC114B2E0DB0608F482
:1027E0003ACF83A194A1A5A1B6A1481759076A07BA
:1027F0007B0741F410A28FEF9FEFDC0183A394A32A
:10280000A5A3B6A3940181A192A10E9407068823E3
:1028100009F496CEE12C82E0F82E60CF0C960C9451
:102820006312CF93DF931F92CDB7DEB7698341E088
:1028300050E0BE016F5F7F4F0C960E9463120F90B5
:10284000DF91CF9108954F925F926F927F928F9216
:102850009F92AF92BF92CF92DF92EF92FF920F932F
:102860001F93CF93DF93EC015B018A018A8180FF84
:10287000CDC0888183FF16C0888D998DAA8DBB8DB0
:10288000488959896A897B89841B950BA60BB70BEC
:10289000A80170E060E0481759076A077B07A0F0BD
:1028A0008C0112C086FF10C0EE81FF818681978166
:1028B00055E0880F991F5A95E1F728893989821BBD
:1028C000930B8017910760F378012E018CE0480E7E
:1028D000511C612C42E0742EE114F10409F4C3C0D0
:1028E000488959896A897B89EE81FF814A0181E0A3
:1028F00098222881DB01CA0139E0B695A795979502
:1029000087953A95D1F726FF29C0448D558D668D60
:10291000778D480F591F6A1F7B1FEE81FF8181143D
:10292000910409F079C0E11482E0F80608F474C05B
:1029300083A194A1A5A1B6A1481759076A077B07EF
:1029400009F46AC0950181A192A10E940907882318
:1029500009F45CC0C12C82E0D82E74C0D380D82288
:102960008114910481F4D1100EC0452B462B472BC6
:1029700081F527FF29C0848D958DA68DB78D8C8715
:102980009D87AE87BF87EE81FF814C855D856E8513
:102990007F854250510961097109848104C0440F47
:1029A000551F661F771F8A95D2F780899189A28962
:1029B000B389840F951FA61FB71FAC01BD014D0D34
:1029C000511D611D711DA9CF8C8D9D8DAE8DBF8D4B
:1029D000D6CF4C855D856E857F8523FF0CC08A81AF
:1029E00086FF09C04F5F5F4F6F4F7F4F4C875D87FA
:1029F0006E877F87C8CF9201CF010E94D70987FDDC
:102A000005C08111C0CF8881807D69F58981826090
:102A100089838FEF9FEF2AC0C30188199909670145
:102A20008E159F0508F46C0120E0CF0180960E946E
:102A30009E07009759F3BC01680D791DA601C501D9
:102A40000E94F830AC0CBD1C88899989AA89BB8981
:102A50008C0D9D1DA11DB11D888B998BAA8BBB8BE5
:102A6000EC18FD0839CFC8018E199F09DF91CF916D
:102A70001F910F91FF90EF90DF90CF90BF90AF909C
:102A80009F908F907F906F905F904F900895EF92FE
:102A9000FF920F931F93CF93DF931F92CDB7DEB7B3
:102AA0007C01962FF70140895189628973898A01D7
:102AB0009B0185E036952795179507958A95D1F75F
:102AC0000F7011F091112BC041E050E0BE016F5F1B
:102AD0007F4FC7010E942314813051F090E080E0C5
:102AE0000F90DF91CF911F910F91FF90EF9008957C
:102AF000F70180899189A289B3894F96A11DB11DE3
:102B0000808B918BA28BB38BF701868197818B96FB
:102B1000F0E20F9F90011124820F931FE1CF405EDE
:102B20005F4F6F4F7F4F408B518B628B738BECCF1E
:102B30008F929F92AF92BF92DF92EF92FF920F938C
:102B40001F93CF93DF93EB01FC012081211154C02F
:102B50002881207D09F450C0088919892A893B8978
:102B60000F71112722273327012B022B032B09F08A
:102B700043C0142F7C0100E0D12C88889988AA8852
:102B8000BB8860E0CE010E9447150097A9F1FC01C7
:102B90002081222389F12E3229F1253E19F1338536
:102BA00033FD22C0002321F00E94A50A8D1124C00C
:102BB000B501A40185E076956795579547958A9567
:102BC000D1F7212FBE01C7010E94BD0FDF91CF9128
:102BD0001F910F91FF90EF90DF90BF90AF909F906B
:102BE0008F90089500E0C9CF3F30E1F726FFC5CFB1
:102BF000022F0F71D584C1CF80E0E8CFCF93DF9350
:102C0000EC01AB0170E060E085E0440F551F661FEA
:102C1000771F8A95D1F7CE010E94B30A882331F03D
:102C200060E0CE01DF91CF910C94471590E080E0F9
:102C3000DF91CF9108953F924F925F926F927F9272
:102C40008F929F92AF92BF92CF92DF92EF92FF92BC
:102C50000F931F93CF93DF93CDB7DEB7A0970FB637
:102C6000F894DEBF0FBECDBF7C016B0119821A82C2
:102C70001B82FC018081882309F485C08381811136
:102C80001DC0C7010E94A00B8C01C801A0960FB601
:102C9000F894DEBF0FBECDBFDF91CF911F910F9192
:102CA000FF90EF90DF90CF90BF90AF909F908F906C
:102CB0007F906F905F904F903F90089580859185B1
:102CC000A285B385668177819E012F5F3F4F2901E1
:102CD0000097A105B10509F041C0C9010E94A20FEA
:102CE000882309F450C066246394712C10E000E03E
:102CF000F7018381861508F441C0648175816619E6
:102D00007709C2010E94FE155C010097E1F1FC0108
:102D100083858F30C1F580818F71681234C0460180
:102D2000800E911E312C632DC5010E94DA0100979F
:102D300029F10F5F1F4F0131110528F58F379105DC
:102D400010F08FE390E0F40181934F013394FDE0A4
:102D50003F12E9CF2FEF621A720ACACF2CE1F201BB
:102D600011922A95E9F720E1298321E02B837887C6
:102D70006F838D8F9E8FAF8FB8A3B5CFF601E00F15
:102D8000F11F108282CFF601108210E000E07DCFAB
:102D90009F92AF92BF92CF92DF92EF92FF920F93EA
:102DA0001F93CF93DF93CDB7DEB7A0970FB6F894FC
:102DB000DEBF0FBECDBF19821A821B82DC011296C4
:102DC0002C9121FF12C08C01FC01448D558D668D24
:102DD000778D411551056105710549F461E0C80120
:102DE0000E94830B7C01009749F480E067C08681D4
:102DF00097810E94520A8111F1CFF7CF0E94A50A54
:102E0000B82E85EEF7018083D8011C9212961C9291
:102E1000129716968D919C910E94A90C882329F3F4
:102E2000F8019381992309F449C080859185A28591
:102E3000B385668177819E012F5F3F4F69010097BF
:102E4000A105B10509F04CC0C9010E94A20F882359
:102E500061F2EE24E394F12C95EEA92ED80113969D
:102E60008C9113978E1508F214966D917C916E19C2
:102E70007F09C6010E94FE15FC01892B09F4B5CF1C
:102E800083858F3009F0B1CF9081892F8F71E8123F
:102E9000ACCF85858B11A9CFA082D8011696ED9174
:102EA000FC9180A1816080A3BFEFEB1AFB0A96FF23
:102EB000D5CFF801868197810E94A90CA0960FB604
:102EC000F894DEBF0FBECDBFDF91CF911F910F9160
:102ED000FF90EF90DF90CF90BF90AF909F900895BC
:102EE0002CE1F60111922A95E9F720E1298321E0EE
:102EF0002B8378876F838D8F9E8FAF8FB8A3A9CFD9
:102F0000CF93DF931F92CDB7DEB741E050E0BE0113
:102F10006F5F7F4F0E942314019731F4898190E005
:102F20000F90DF91CF9108958FEF9FEFF9CF8F92A0
:102F30009F92AF92BF92CF92DF92EF92FF92CF9388
:102F4000DF93EC018C8C9D8CAE8CBF8CC88CD98CA3
:102F5000EA8CFB8C0C960E9480178C8E9D8EAE8E18
:102F6000BF8EC88ED98EEA8EFB8EDF91CF91FF90F7
:102F7000EF90DF90CF90BF90AF909F908F9008958B
:102F80000C960C9480170F931F93CF93DF93EC0153
:102F9000888199810E94A30E4427562F672F782F8E
:102FA0008E01035F1E4FF801808191810C960E9473
:102FB000B30A2296F8018081918140E051E0BE0180
:102FC0000C960E942314CE01DF91CF911F910F9197
:102FD0000895CF92DF92EF92FF920F931F93CF93BA
:102FE000DF9385E194E0909377038093760380915B
:102FF000390490913A04A0913B04B0913C04823290
:1030000025E2920723E0A207B10529F138F50097E0
:10301000F3E0AF07B10509F4BFC088F48115EBEA0E
:103020009E07E2E0AE07B10509F469C08B3A9D4AFC
:10303000A240B10509F463C090E080E037C181157A
:1030400023E09207A207B10509F4A6C081159242B8
:10305000A340B10589F783E090E053C08115F3E206
:103060009F07F8E0AF07B10509F499C0E8F48115AE
:10307000E6E59E07E5E0AE07B10529F086359B45FC
:10308000A540B105C9F684E090E090936A02809370
:10309000690282E180936B0310926C0385E3809355
:1030A0006D0310926E0336C080382CE892072CE036
:1030B000A207B10571F08115E6E49E07E0E1AE07D5
:1030C000B10509F47EC081159048AC40B10509F006
:1030D000B3CF85E090E090936A028093690288E222
:1030E00080936B0391E090936C0380936D0392E067
:1030F00090936E0380936F031092700313C081E06E
:1031000090E090936A028093690282E180936B035E
:1031100010926C0380916B0390916C0390937003F9
:1031200080936F0310E000E0C1E0D0E056E0F52EA0
:1031300065E0E62E8091690290916A029C0121501F
:1031400031092730310508F0A4C02C5A3E4FF9014F
:1031500020812C171D060CF49CC020916F032C17A6
:103160001D0609F488C08530910509F46CC060F52E
:10317000049709F455C060916B0370916C0389E664
:1031800092E00E94C3179E01220F331F220F331FAC
:10319000820F931FFC0155C082E090E0B2CF86E021
:1031A00090E090936A028093690286E280936B03B9
:1031B00010926C0380936D0383E080936E0387E22B
:1031C00099CF87E090E0EDCF0897A8F660916B0368
:1031D00070916C036E01C739D10524F0775FF6E971
:1031E000CF1AD10825E6C216D10424F07A5F84E60E
:1031F000C81AD108E3E3CE16D10424F07D5FF2E3D0
:10320000CF1AD10889E692E00E94C317EC9C900186
:10321000ED9C300D1124820F931FFC01818128C089
:1032200060916B0370916C0389E692E00E94C31772
:10323000C432D1050CF4A7CF8C0F9D1FFC01E754BD
:10324000FF4F808115C0C932D105BCF460916B037A
:1032500070916C0389E692E00E94C3179E01F29E72
:10326000A001F39E500D1124840F951FFC0182854F
:1032700090E0080F191F21965DCF60916D0370914A
:103280006E0389E692E00E94C3179E01285231091D
:10329000E6CF10937203009371038EEF8093730354
:1032A000109274031092750389E692E0DF91CF913A
:1032B0001F910F91FF90EF90DF90CF9008956F9244
:1032C0007F928F929F92AF92BF92CF92DF92EF92B6
:1032D000FF920F931F93CF93DF93EC01762E672E0F
:1032E0008A01D12CC12CAA24A394B12C9EEFE92EE3
:1032F000F12C0115110509F48AC0888999892E8558
:103300003F85821B930B79F5888099806A857B8540
:10331000C4010E944C0E882309F479C08A858887ED
:103320008B85898768857985C4010E94C3179C01B4
:103330002E5F3F4F3D872C87DC012C912A87119609
:103340008C918B8721110CC0882339F08150990B07
:10335000998B888B1F861E86CCCF8EEF90E0F8CF9E
:10336000F98AE88AF7CFE72DF62D9F01081719078C
:1033700054F1280F391F4C855D856E857F85DB01F3
:103380001196BF87AE87460F571FDA014C914193C4
:103390004C815D816E817F814F5F5F4F6F4F7F4FAB
:1033A0004C835D836E837F832E173F0721F7722E38
:1033B000632E015011099501281B390B020F131FB1
:1033C000C80ED91E96CF200F311FAC85BD858E85C6
:1033D0009F85AC014F5F5F4F5F874E87A80FB91F76
:1033E0008C9181938C819D81AE81BF810196A11DBD
:1033F000B11D8C839D83AE83BF83E217F30729F74A
:103400007E2E6F2EC00ED11E10E000E072CFC601DE
:10341000DF91CF911F910F91FF90EF90DF90CF90B0
:10342000BF90AF909F908F907F906F9008950F9373
:103430001F93CF93DF938C010E94C317FC01D081AF
:10344000C1816D2F7C2FC8010E944C0E811102C0DA
:10345000C0E0D0E08D2F9C2FDF91CF911F910F9175
:1034600008954F925F926F927F928F929F92AF9248
:10347000BF92CF92DF92EF92FF920F931F93CF9361
:10348000DF93EC015B016C0126EFC21A2EEFD20A2A
:103490008FEFD6018C937E01B5EFEB1ABEEFFB0ADE
:1034A000F70110828E01045F1E4FD8011C928DE639
:1034B00091E00E941E31FE01EA5FFE4F4F01892B11
:1034C00009F059C0608171817093600260935F025E
:1034D000CE010E94C3179C012E5F3F4F30936402C0
:1034E0002093630228813981265031092230310529
:1034F000E0F5D4018C918093610281E080936202B7
:103500008EEF90E09093680280936702612C712C9B
:10351000D0935802C09357026092590270925A0297
:1035200010925B0210925C0210925D0210925E0299
:103530001092660210926502D6011C92F701108269
:10354000D8011C9287E592E0DF91CF911F910F91F6
:10355000FF90EF90DF90CF90BF90AF909F908F90B3
:103560007F906F905F904F900895FC012081209391
:1035700061028181C3CF888199810697029788F57E
:103580005080442443944501F0E18F0E911C552056
:10359000F1F0652D742DCE010E94C317FC019C0132
:1035A00033953F0182818F7B823859F5B501CF0178
:1035B0000596DB014D91BD014A3239F0DC015D9188
:1035C000CD01503AB1F4403AE1F4309731F58EE351
:1035D000F6018083D7011C92F801108290E080E010
:1035E000B3CF60817181CE010E94171A492E582EE7
:1035F000CACF4F3311F0451304C086169706C9F69B
:10360000E4CFB096E217F30761F6652D742DCE0175
:103610000E94171A492E582EBACF238184812093F5
:103620005F028093600230E0888199810197873042
:10363000910530F58C5A9E4FDC018C9190E08217F9
:10364000930764F263817481CE010E94C3179C01C9
:103650002E5F3F4F3093640220936302FC01208170
:10366000209361028181809362028150990B222311
:1036700011F08EEF90E0909368028093670248CF3C
:1036800090E080E0DCCF2F923F924F925F926F925A
:103690007F928F929F92AF92BF92CF92DF92EF92E2
:1036A000FF920F931F93CF93DF93CDB7DEB7AC9705
:1036B0000FB6F894DEBF0FBECDBF8C016B01FA01CF
:1036C000DB018C91807D11F480E018C1D8018C91D0
:1036D0008111FACF868197810C966DE070E00E948F
:1036E000AF306CA381858370662463948111660E6C
:1036F000722E7F011CA70BA7F6010680F781E02D33
:10370000FAA3E9A3C6010E940D0E1DA21EA2812CE0
:10371000912C10E000E01BA29701265F3F4F3AA7D3
:1037200029A7D60150962D903D904D905C905397CF
:1037300065E056944794379427946A95D1F75101E0
:1037400060E0C6010E944715FC01892BB1F5F60126
:1037500081818111B9CF74FEB7CF872D83708150DD
:10376000823008F0B1CF112311F0ADA0BEA0161524
:1037700058F460E0C6010E944715892B09F0E9C0A2
:10378000F60181818111A0CF012F10E0862C912CB0
:103790000815190508F0DFC0C6010E9442108823F1
:1037A00009F492CFA9A1BAA112968C91B0E18B9F96
:1037B000C0011124080F191FEBCF9081953E11F025
:1037C00091110EC0111102C02DA23EA2161508F4CF
:1037D0001F5F992309F4BFCF953E29F400E0A1CFE4
:1037E000161508F44AC09E32C9F383858F3009F05C
:1037F00070C0011144C0292F2F71922E3CA13213A9
:1038000090CF96FF8ECF8584032F81E0981289CFC9
:1038100019821A821B82B601CE0101960E94120EF5
:10382000D7018D919C91119713969C938E9312972B
:1038300044244394041508F474CFB501CE010196D5
:103840000E94FE151C01892B49F2F7010480F581C5
:10385000E02DF8A7EFA3512C652DC1010E94DA01DC
:10386000D7011296ED91FC912FA138A5E217F3072D
:1038700071F4892B09F455CFB1CF10E0B4CF9A94ED
:103880009911ACCF8585881509F4BFCFA7CF8038B3
:10389000910508F0A3CF2FE9280F2A3108F48052B0
:1038A0009F012F5F3F4FD70113963C932E931297A2
:1038B00090812FE9290F2A3108F4905298138ECF66
:1038C0005394BDE05B12C8CF4394E1E0AE1AB10857
:1038D000B1CF83FD83CF002351F121E09212F4CECA
:1038E000CF010E94A50A8811EFCE76FCEDCE272DE0
:1038F000A501B6018BA59CA50E94BD0FAC960FB685
:10390000F894DEBF0FBECDBFDF91CF911F910F9115
:10391000FF90EF90DF90CF90BF90AF909F908F90EF
:103920007F906F905F904F903F902F9008954BE065
:1039300050E069A57AA5CF010E94EB30892B09F0F0
:10394000F0CED70119968C9180FFCFCF31E03BA309
:10395000E8CE1F5F0CCFEBA1EE23E9F1D70118965B
:103960005C9042E6442E10E000E05EE7352E470111
:10397000BAE08B0E911C0E94DF04060F171FE3E0D4
:10398000E51510F433E0532E94E0950D802F8F70E1
:103990008A3008F07EC0805DF701E90FF11D828753
:1039A00024E0169507952A95E1F79150591670F382
:1039B000F701E50DF11D3286C6010E940D0E61E092
:1039C000C6010E944715009709F065C0D6011196FF
:1039D0008C91811179CE0FEF060DA00EB11C1982CA
:1039E0001A821B82B601CE0101960E94120E470177
:1039F000FAE08F0E911CC4010E94A50A582ED7012F
:103A00008D919C91119713969C938E93129711E030
:103A1000612C402E689446F88FE0382EB5010117CE
:103A200008F467C0611B7109CE0101960E94FE1562
:103A3000FC01892B09F448CEAF81B88590968C9112
:103A40009097816090968C93842D0113812F8083B1
:103A5000338614865586138E128ED70114964D9197
:103A60005C9160E0D70112962D913C911397241739
:103A7000350731F5662081F163942FEF3FEF653014
:103A800080F5328321836F5F32966D3059F71F5F67
:103A9000C5CF895C81CFFC012081222309F49BCF13
:103AA000238523FD8CCF4BE050E0BC01C4010E9474
:103AB000EB30892B09F083CF4A9441105CCF04CEC0
:103AC000C901019613969C938E931297D9012C915C
:103AD000022E000C330BD3CF30E020E06624639439
:103AE000CECF6B3018F435832483CDCF3783268334
:103AF000CACFC6010E94FE15009709F4E5CD20E269
:103B0000FC0111922A95E9F72BE0F401DC01019008
:103B10000D922A95E1F7D70119962C912871FC0195
:103B2000248721E23AE5318B208B318F208F338B34
:103B3000228BA9A1BAA190968C91909781609096C2
:103B40008C93D5CEDF92EF92FF920F931F93CF937A
:103B5000DF93CDB7DEB7E7970FB6F894DEBF0FBEA1
:103B6000CDBF7C018B015FAB4EABD22E19821A8286
:103B70001B82FC018081882379F080E0E7960FB6F4
:103B8000F894DEBF0FBECDBFDF91CF911F910F9193
:103B9000FF90EF90DF900895FB018081807D69F3B5
:103BA000EEA9FFA980818F32D9F4EEA9FFA9808107
:103BB0008F3221F43196FFABEEABF7CFF80166817F
:103BC0007781811104C0C7010E94A20FD7CFCE0117
:103BD00001960E94A20F882381F28E010F5F1F4F72
:103BE000AE014A5C5F4FBE016F5D7F4F8EA99FA9FA
:103BF0000E940002882309F4C0CFEEA9FFA98081AA
:103C00008823A1F020E0AE014F5D5F4FB801C701EE
:103C10000E94431B882309F4B0CFB701CE0101965F
:103C20000E94120EC7010E94F80CD7CF2D2DAE01B5
:103C30004F5D5F4FB801C7010E94431B9FCF242FE8
:103C4000AB016CE676E00C94A21DCF93DF93CDB769
:103C5000DEB7A0970FB6F894DEBF0FBECDBF1982B6
:103C60001A821B8220E0AC016CE676E0CE01019660
:103C70000E94A21DA0960FB6F894DEBF0FBECDBF66
:103C8000DF91CF910895DF92EF92FF920F931F93F0
:103C9000CF93DF93CDB7DEB7A0970FB6F894DEBF12
:103CA0000FBECDBF8C01DB019C91907D09F496C0C5
:103CB0007B0122E5C8010E94431B882309F48EC0C2
:103CC00081E0F801828380E1D82ED082C8010E9471
:103CD0004210882309F482C0F80184859585A68561
:103CE000B785848F958FA68FB78FC8010E940D0E60
:103CF000C8010E94BB0C882309F470C061E0C801B0
:103D00000E94830BFC01892B09F468C0D38680E2F2
:103D1000DE01119601900D928A95E1F78EE289837A
:103D2000FE013296CE010C9620E22193E817F907A6
:103D3000E1F7D8011696ED91FC9117975C964D919D
:103D40005D916D917C915F974250510961097109B4
:103D5000848104C0440F551F661F771F8A95D2F7D0
:103D600080899189A289B389480F591F6A1F7B1FD7
:103D700021E0CF0180960E949E07009779F120E212
:103D8000FE013196DC0101900D922A95E1F72EE2B9
:103D90002A83F701448D558D668D778D7E8B6D8BD3
:103DA0005C8F4B8F20E2FE013196DC0190960190F2
:103DB0000D922A95E1F7D80116968D919C91A096C7
:103DC0000FB6F894DEBF0FBECDBFDF91CF911F912C
:103DD0000F91FF90EF90DF900C94A90C80E0A096DB
:103DE0000FB6F894DEBF0FBECDBFDF91CF911F910C
:103DF0000F91FF90EF90DF900895DF92EF92FF9286
:103E00000F931F93CF93DF93CDB7DEB7E7970FB62E
:103E1000F894DEBF0FBECDBFFC017FAB6EAB198245
:103E20001A821B828081882379F080E0E7960FB6A2
:103E3000F894DEBF0FBECDBFDF91CF911F910F91E0
:103E4000FF90EF90DF90089590916C06907D69F35C
:103E5000D42E8F01EEA9FFA980818F3241F18CE62B
:103E6000E82E86E0F82EAE014A5C5F4FBE016F5D22
:103E70007F4F8EA99FA90E9400028823B1F2EEA96C
:103E8000FFA980818823C1F120E0AE014F5D5F4F23
:103E9000B701C8010E94431B882309F1B801CE0174
:103EA00001960E94120EC8010E94F80C14C0EEA9DF
:103EB000FFA980818F3221F43196FFABEEABF7CFB3
:103EC0006091720670917306CE0101960E94A20F56
:103ED000882309F4AACFCE0101967C01C4CFDD204E
:103EE00009F4A3CFAE014F5D5F4FB701C8010E9437
:103EF000431E8111D3CF99CFAE014F5D5F4FB70104
:103F0000C8010E94431E92CF2F923F924F925F9220
:103F10006F927F928F929F92AF92BF92CF92DF92D9
:103F2000EF92FF920F931F93CF93DF93CDB7DEB73E
:103F3000C458D1090FB6F894DEBF0FBECDBF382EDE
:103F4000CE018D960E94FA0DCE01875A9F4F0E9496
:103F5000FA0D80911802882309F441C040E150E035
:103F600060EA70E082E791E00E940131E7E0F2E070
:103F7000A2E7B1E027E132E08191882321F08D931F
:103F80002E173F07C9F762E771E080910502909113
:103F900006020E94311A9093B5018093B401892BD7
:103FA00011F41092720182E791E0CC57DF4F0FB607
:103FB000F894DEBF0FBECDBFDF91CF911F910F915F
:103FC000FF90EF90DF90CF90BF90AF909F908F9039
:103FD0007F906F905F904F903F902F9008958091C9
:103FE00007028F3209F076C080937201109273013C
:103FF000CE0101960E94FA0D40E062E771E0CE0129
:104000000D960E941F1EBE016F5F7F4FCE018D96E1
:104010000E941D0E89AD882321F282E791E0FC0108
:1040200001900020E9F7CF018357914027E032E06B
:10403000F90101900020E9F79F0128503240820FDA
:10404000931F8134910508F0ACCF6AE270E087E0FD
:1040500092E00E941331892B09F048C06FE370E0B1
:1040600087E092E00E941331892B09F03FC067E09E
:1040700072E082E791E00E940831CE0101960E9431
:10408000FA0D40E062E771E0CE010D960E941F1E1E
:10409000BE016F5F7F4FCE01875A9F4F0E941D0E5A
:1040A000A6968FADA697882361F0807D3320C9F056
:1040B0008823C9F089E590E08C0F9D1F0C960E9423
:1040C000F80C89AD882309F46ECFCE01C9960E9401
:1040D000F80C69CF60E071E082E791E00E9427313F
:1040E00087CF882339F310927201E4CFCE01019675
:1040F0000E94FA0D40E0BE01675C7F4FCE010D9635
:104100000E949815BE016F5F7F4FCE01875A9F4F67
:104110000E941D0E99E5A92EB12CAC0EBD1EFCE02F
:10412000AF0EB11C26EB622E21E0722E37E0432E3B
:1041300032E0532EA6968FADA697882309F4B3C01C
:10414000807D332009F479C0882309F479C066EBB7
:1041500071E0C5010E941B160197409728F066EB9D
:1041600071E0C5010E94A00BF20101900020E9F767
:104170009F0128503240690187E0882E82E0982E06
:1041800010E000E091E0C016D10609F495C0F301FB
:1041900001900020E9F79F01275B31407901021768
:1041A000130708F089C0992309F44AC0F4018191EA
:1041B0004F018A3209F45CC08F3361F00E94240DF4
:1041C000282EF801EA54FE4F80810E94240D91E0D0
:1041D000281290E00F5F1F4F00311105A1F69923BF
:1041E00079F121E1E216F10450F4F301019000208D
:1041F000E9F7CF01875B9140C816D90609F582E738
:1042000091E0FC0101900020E9F7CF018357914034
:1042100026EB31E0F90101900020E9F79F01275BCF
:104220003140820F931F8134910588F566EB71E070
:1042300082E791E00E9408312CC0882309F487CFDF
:10424000C5010E94F80CCE0101960E94FA0D40E0D3
:10425000BE01675C7F4FCE010D960E949815BE018E
:104260006F5F7F4FCE01875A9F4F0E941D0E62CF16
:1042700082E791E0FC0101900020E9F7CF0183572C
:104280009140E80EF91EF1E4EF16F10478F2109275
:10429000720189E590E08C0F9D1F0C960E94F80C2E
:1042A000CE01C99614CF89AD882309F47ACECE0108
:1042B000C9960E94F80C75CE911197CFC1CFAF92DD
:1042C000BF92CF92DF92EF92FF920F931F93CF9303
:1042D000DF93CDB7DEB7C458D1090FB6F894DEBF6F
:1042E0000FBECDBFE82ECE018D960E94FA0D8091B3
:1042F0001802811105C0E110DEC01092070213C040
:1043000067E072E081E294E00E941B1601974097FB
:1043100030F067E072E081E294E00E94A00B81E25D
:1043200094E00E94F80C10921802CE01875A9F4F19
:104330000E94FA0D29E5C22ED12CCC0EDD1E8CE098
:10434000C80ED11C40E060E071E0C6010E941F1E53
:10435000A6968FADA697882309F4ADC08091070279
:104360000FEF1FEF882309F442C0E6EBF1E081E193
:10437000DF011D928A95E9F710E000E0FC2C41E195
:1043800050E067E072E086EB91E00E942E31892BCD
:1043900061F1CE0101960E94FA0D40E06F2D7D2D56
:1043A000CE010D960E949815BE016F5F7F4FCE0122
:1043B0008D960E941D0E89AD882309F47CC066EBA2
:1043C00071E0CE01C9960E941B160197409730F00C
:1043D00066EB71E0CE01C9960E94A00B0F5F1F4FE4
:1043E000CE01C9960E94F80CCACF0150110984E190
:1043F000F82E99E5C92ED12CCC0EDD1EBCE0CB0EDB
:10440000D11CEE2009F440C00115110509F468C063
:1044100001501109A6968FADA697807D19F0C601AF
:104420000E940D0ECE0101960E94FA0D42E0B601E7
:10443000CE010D960E949815BE016F5F7F4F85E1FA
:1044400094E00E941D0E580180912104A114B10432
:10445000F1F0882321F081E294E00E94F80CCE0173
:1044600001960E94FA0D42E0B601CE010D960E941F
:104470009815BE016F5F7F4F85E194E00E941D0E8D
:1044800081E0A81AB108E0CF0F5F1F4FC3CF882388
:1044900021F10E94E9179093060280930502892B6F
:1044A000E1F081E08093180289E590E08C0F9D1F78
:1044B0000C960E94F80CCC57DF4F0FB6F894DEBF75
:1044C0000FBECDBFDF91CF911F910F91FF90EF9065
:1044D000DF90CF90BF90AF900895FA94F11091CFF4
:1044E00080910702882301F322E047E052E069E56A
:1044F00070E06C0F7D1F645F7F4F81E294E00E944B
:10450000A21D882389F20E94E917909306028093E6
:104510000502892B31F6C8CF8F929F92BF92CF921E
:10452000DF92EF92FF920F931F93CF93DF93CDB75C
:10453000DEB7AC970FB6F894DEBF0FBECDBF7C01DF
:1045400010911802112309F4A1C010E28091B20168
:104550008F5F883009F496C08093B201412F50E0FC
:1045600064ED71E08091B4019091B5010E945F19F2
:10457000092E000CAA0BBB0B4E97A105B10508F440
:104580007FC10091D401002309F3102F1770B02EC2
:10459000B094BB1CBB24BB1C06FB002700F9C090D9
:1045A000F001D090F1010D2C000CEE08FF08A7EDF2
:1045B000B1E0E6EBF1E090E080E02D91203A29F0C7
:1045C0002193019680319105C1F78A549E4FDC01F9
:1045D0001C921092B301E0E2F2E08CE2DF011D9246
:1045E0008A95E9F781E080931C0280931D02C092B6
:1045F0001E02D0921F02BAE0CB16D104E104F104EE
:1046000008F0CBC080E280932002A5E0E1E0EA0F51
:10461000B0E0A45EBD4F80E28C93A1E0AE0FF0E06D
:10462000E45EFD4F80E28083E1E0EA0FB0E0A45E4B
:10463000BD4F80E28C9381E08E0FF0E0E45EFD4F91
:1046400092E2908326EB822E21E0922EE12CD4017F
:104650009D914D01C82ED12CFF24F394F80EF60144
:10466000E45EFD4F6F01992309F4B3C0F0E1EF164A
:1046700009F4AFC0E394892F0E94240DD6018C93D6
:104680008F2DE5CF1092B2011EE168CFCE010196C9
:104690000E94FA0DB701645F7F4F40E0CE010D9696
:1046A0000E9498158D85882309F4D7C0E6EBF1E0C8
:1046B00081E1DF011D928A95E9F7BF01CE010D96D8
:1046C0000E941B160197409730F066EB71E0CE0117
:1046D0000D960E94A00B6DA17EA18FA198A52EEF33
:1046E00030E040E050E00E94C33069017A01BFEF42
:1046F000CB1ADB0AEB0AFB0A4D8541FBBB24B0F861
:10470000842F807D16E009F412E026EB31E0F901F8
:1047100001900020E9F79F01275B3140253000F12F
:104720003327C9018A549E4FFC01349720812E32D1
:10473000B9F4319620812F7D243491F43196208173
:10474000263339F40197DC018C91843349F416E067
:1047500007C02733B1F4FC01319790819133B9F34D
:10476000942F9871B9F04772842F90E08570992743
:1047700001E0892B09F400E0CE010D960E94F80CAF
:1047800028CF283369F7FC013197908190539330FB
:10479000F0F2E6CF8FEF9FEFE9CFE4E6CE16D1043B
:1047A000E104F10410F4A4E031CFF8EECF16F3E009
:1047B000DF06E104F10410F4E4E02FCFE4E020E1AF
:1047C000C21627E2D206E104F10408F034CFA4E0D7
:1047D0002BCF92E2F60190839E2DFE1820E2EF2D62
:1047E000E90FF0E0E45EFD4F903119F020839F5F08
:1047F000F6CF91E1980FF92EFE188E5E8E199AE28F
:10480000B11001C090E29083E12FF0E0EE0FFF1FA6
:10481000ED57FE4F6591749190E0845E9D4F0E942C
:104820009230E4E0EF0D8CE3011101C080E2F0E092
:10483000E45EFD4F8083E5E0EF0DF0E0E45EFD4FC8
:1048400080E28083E6E0EF0DF0E0E45EFD4F108251
:1048500087E08F0D8093B30111E0812FAC960FB6E6
:10486000F894DEBF0FBECDBFDF91CF911F910F91A6
:10487000FF90EF90DF90CF90BF909F908F90089522
:1048800010E0EBCF81E080931C0280931D028091A9
:1048900018028823E1F0E0910502F0910602E85F3A
:1048A000FE4F9081818190931E0280931F0266E7E4
:1048B00071E080E292E00E94923010922C021092FD
:1048C0002D0210922E0283E18093B30108958FE0B0
:1048D00080931E0287E2E9CFECE1F2E090E3DF0192
:1048E0001D929A95E9F766E071E08E31E9F098F44F
:1048F00060E571E08130C1F068E671E08130A0F0E0
:104900006AE371E0873181F06EE171E08A3161F034
:1049100068E870E009C065ED70E08F3329F040F47D
:104920006CEE70E08E33A1F78CE192E00C94923043
:1049300066EB70E08934C1F36BE970E08A34A1F36F
:10494000E7CF6F927F928F929F92AF92BF92CF925A
:10495000DF92EF92FF920F931F93CF93DF93CDB728
:10496000DEB7C855D1090FB6F894DEBF0FBECDBF74
:10497000782ECE018D960E94FA0D772019F081E0F5
:104980000E945C0DE0914E02E250E83008F015C143
:10499000F0E0E353FB4D0C94E530A125DD25BE2569
:1049A000DF25A125BE25DF25D5248091180200E052
:1049B00010E0811102C00EE312E080910802209104
:1049C0000702E0900502F0900602470196EF891A6F
:1049D0009EEF990A9FEFF40190835701F5EFAF1A0C
:1049E000FEEFBF0AF50110826701F4EFCF1AFEEF68
:1049F000DF0AF601108220935F028093600230E0AC
:104A0000F7018081918101978730910578F48C5A64
:104A10009E4FFC01808190E08217930754F410921E
:104A2000B5011092B4010EE312E045C090E080E0C1
:104A3000F3CF60915F0270916002C7010E94C317BB
:104A40009C012E5F3F4F3093640220936302FC0170
:104A50002081209361028181809362028150990BB1
:104A6000222311F08EEF90E090936802809367020A
:104A7000F0925802E092570210925B0210925C0290
:104A800010925D0210925E02109266021092650210
:104A9000F4011082F5011082F601108287E592E0A0
:104AA0009093B5018093B40141E050E0BE016F5F87
:104AB0007F4F0E945F19772009F4E6C10E94570DCD
:104AC000F82E8111FBCF0E94BF0DE12CC12CDD24FB
:104AD000D394BB24B394112309F463C1812F0E94A2
:104AE000990D0E94C60D81E00E945C0D0E94570D39
:104AF0008130E1F780E00E94990D0E94BB1089ADE2
:104B0000882321F0CE01C9960E94F80C802F0E94C4
:104B10006C2410924E02C85ADF4F0FB6F894DEBFD5
:104B20000FBECDBFDF91CF911F910F91FF90EF90FE
:104B3000DF90CF90BF90AF909F908F907F906F90BD
:104B4000089580E00E94841F8C01809118028823C0
:104B5000C1F0B80180910502909106020E94311ABD
:104B60009093B5018093B401009709F45CCF41E0C4
:104B700050E0BE016F5F7F4F0E945F1900E010E0C0
:104B80009ACFC8010E94251E882309F44CCFCE017C
:104B900001960E94FA0D40E0B801CE010D960E94E8
:104BA0001F1EBE016F5F7F4FCE018D960E941D0EAE
:104BB00089AD8111E3CF0E94BB1007E135CFCE0153
:104BC00001960E94FA0D40E060E071E0CE010D9682
:104BD0000E941F1EBE016F5F7F4FCE018D960E9407
:104BE0001D0E89AD00E010E0811104C00E94BB10D1
:104BF00007E112E0F0901802FF2071F01092B2016C
:104C00006DE671E080910502909106020E94311AD2
:104C10009093B5018093B4011092B30181E0809329
:104C20001C0294E090931D0280931E0280931F0249
:104C3000109220021092210282E18093220282E2ED
:104C400080932302FF2009F459C0809105029091BE
:104C50000602FC0120813181EA5FFE4F6081718193
:104C60002530310509F442C020F02830310508F420
:104C700041C00E94C31780579F4F20E1FC01A4E26E
:104C8000B2E001900D922A95E1F722E220933402DE
:104C900020E220933502FC01729685E0A6E3B2E0A3
:104CA00001900D928A95E1F7ECE1F2E080E29085C7
:104CB000903A09F48087319622E0E333F207B9F79E
:104CC0002EEFF22E41E050E0BE016F5F7F4F8091EA
:104CD000B4019091B5010E945F19FA94F110F2CFDE
:104CE00010923B0280E28093B301E5CE0E94C3178D
:104CF0000496C3CF0E94C3170696BFCFE0E0F1E051
:104D000001900020E9F7CF01815091407C01D82E1D
:104D100091E09E1508F040C0F701FF27E150FF4FDA
:104D200010826FE270E080E091E00E943C31BC01B3
:104D300084E292E00E942731E1E0ED1530F4F701C2
:104D4000FF27E150FF4F8FE2808384E292E0FC0175
:104D500001900020E9F7CF0185529240F82E8CE1B6
:104D6000C82E82E0D82EE12C90E2B92EF601EF1485
:104D7000B0F480850E94240DF6018087E394FFEF54
:104D8000CF1ADF0A20E1E212F1CF63E971E084E398
:104D900092E00E949230A4CF80E091E0C8CFB0862C
:104DA000EDCF80914E02883009F451C0893019F05E
:104DB000863009F064C080911802882309F1698067
:104DC00041E050E0BE016F5F7F4F8091B401909150
:104DD000B5010E945F19892B09F451C0812F0E94EF
:104DE000990D862D0E943C0DDB24AE2CAB248D2D1D
:104DF0000E945C0D0E94570DE82E8A11FBCF6BCEEE
:104E0000CE01C9960E948017682E89AD83FF1BC012
:104E100065968CAD9DADAEADBFAD65972D964CAD95
:104E20005DAD6EAD7FAD2D97841B950BA60BB70BBB
:104E30008115E0E89E07A105B10568F28FEF9FE7B5
:104E4000A0E0B0E0C8CF80E090E0DC01F1CFEF2D32
:104E5000F0E0E45EFD4F6080F3948091B3018F1128
:104E6000BDCFF12CC1100BC0CE018D960E948C22BB
:104E7000811103C00E944224C72CF12CAFCF13E054
:104E8000ADCFC72C10E005C0B12CC12CF12CE12C0A
:104E9000D12C0E94650DA82EF1E88F1708F4AEC042
:104EA00022E8281708F095C084E8A812A7C08091CE
:104EB0004E02843051F020F4823009F163E022C0C8
:104EC000853009F466C08730C9F7E0914C02F09153
:104ED0004D02EE0DFF1D80911902882309F475C063
:104EE000849197012F5F3F4F40911A0250911B020E
:104EF0004217530709F46BC07901612F1EC01123BB
:104F000029F0612F8DE00E94CD0DF7CD8091180220
:104F10008823B1F0A98041E050E0BE016F5F7F4F70
:104F20008091B4019091B5010E945F19892B79F1AC
:104F3000FFEFEF1AFF0A612F8A2D0E94CD0DA9CF36
:104F4000CE01C9960E948017A82E89AD83FF1BC091
:104F500065968CAD9DADAEADBFAD65972D964CAD54
:104F60005DAD6EAD7FAD2D97841B950BA60BB70B7A
:104F70008115E0E89E07A105B105C0F28FEF9FE71C
:104F8000A0E0B0E0D3CF80E090E0DC01F1CF13E00F
:104F9000CFCFED2DF0E0E45EFD4FA080D394809163
:104FA000B3018D11C8CFB1100CC0CE018D960E94F7
:104FB0008C22811104C00E944224BB24B394D12CC2
:104FC000BACF7B2CD12C13E0B6CF80818ACF13E0EF
:104FD00094CF80E00E949E0D90914E02953009F092
:104FE0008CCDC1108ACD711088CD21E8A21249CF95
:104FF000803209F046CFCC24C39444CF812F0E9445
:105000009E0D7BCD80911802882331F081E294E0DF
:105010000E94F80C109218020E942B090E941C1189
:10502000811103C08AE40C946C240895CF938230DC
:1050300038F5C82F90E080E00E9499308A3A29F034
:105040006AEA90E080E00E94A13081E090E00E9456
:105050009930853529F065E581E090E00E94A13026
:1050600082E090E00E949930C81729F06C2F82E00E
:1050700090E00E94A1306C2F82E1CF910C943E040D
:10508000CF910895CF92DF92EF92FF920F931F93EB
:10509000CF93DF93CDB7DEB7CC58D1090FB6F894D4
:1050A000DEBF0FBECDBF80E00E946C248091D40192
:1050B000833409F0A8C09091D501943409F00EC34F
:1050C00082E00E94C710809107028823D1F08F35BB
:1050D00071F08E3761F08E3209F040C08091080285
:1050E0008E3209F04FC08091090281114BC080912E
:1050F00018028823B1F081E294E00E94F80C10922B
:105100001802C457DF4F0FB6F894DEBF0FBECDBFF5
:10511000DF91CF911F910F91FF90EF90DF90CF9093
:10512000089580E091E0FC0101900020E9F7CF01B3
:1051300081509140823028F39927FC01E150FF4FC4
:1051400010826FE270E080E091E00E943C31F0E07C
:105150008F3F9F07A1F0FC011182D3CF8F3291F4D2
:10516000809108028F3271F48091090281110AC086
:10517000809118028111BFCF8FE2809300011092BD
:105180000101BFCF81E00E94841F8C010E94251E77
:10519000882391F0B80180E091E00E942731E0E09F
:1051A000F1E001900020E9F7E150F140FF27E050E5
:1051B000FF4F8FE28083D0CF80E00E94841F8C015C
:1051C000CE0101960E94FA0D42E0B801CE010D9683
:1051D0000E941F1EBE016F5F7F4F85E194E00E9419
:1051E0001D0E80912104882309F429C20E94E91729
:1051F0009093060280930502892B09F482CF81E007
:10520000809318027ECF8D3419F0823509F0F3C1F6
:105210009091D501943409F064C0809118028823DC
:1052200021F08AE10E946C246CCF82E00E94C710BA
:1052300081E00E94841F7C018091D4018D3421F093
:105240008235A9F080E0EECFC7010E94251E882399
:1052500011F08FE3E7CF19821A821B8241E0B70178
:10526000CE0101960E94FD1E81114BCFDACFC701FE
:105270000E94251E882309F4E2C119821A821B822A
:1052800020E0A7016CE676E0CE0101960E94A21D07
:10529000882339F2898184FFC4CFCE0101960E9410
:1052A0000D0E61E0CE0101960E944715009769F44A
:1052B0008A818111B6CF88E089838B8182608B835C
:1052C000CE0101960E94C816CFCFFC012081222377
:1052D00091F3253E31F32E3221F3838583FDE1CF17
:1052E000A0CF823509F087C180911802811199CF32
:1052F000903329F49091D60112E09A3309F011E02D
:10530000E12FF0E0EC52FE4F90819A3309F41F5FD9
:1053100020910402E12FF0E0EC52FE4F121758F4F6
:105320009191992341F081110AC081E09D3309F0E8
:1053300080E01F5FF3CF811102C08EE173CFE12FB8
:10534000F0E0ED52FE4F108281E00E94C710809184
:105350000702882391F380E00E94841FBC018CE146
:1053600092E00E9427317C010E94251E811171CF9D
:10537000812F0E94C710809107028823F1F280E0FC
:105380000E94841F8C010E94251E882309F457C1A6
:10539000AE961FAEAE97AF961FAEAF97E0961FAE1C
:1053A000E09720E0A8016CE676E0CE0183599F4F9C
:1053B0000E94A21D882309F434CF1DA61EA61FA695
:1053C00019821A821B82AE968FADAE97887109F44E
:1053D00028CFE5962EAD3FADE5978091720690916E
:1053E00073062817390709F01CCFCE0183599F4F48
:1053F0000E94BB0CBE0163597F4FCE0101960E94F3
:10540000120E60E0CE0183599F4F0E94830BFC0176
:10541000892B09F406CF90E2DE01A35BBF4F019018
:105420000D929A95E1F7AE968FADAE9783FFD3C0FC
:1054300021E5A7016CE676E0CE018D960E94A21DC3
:10544000C12CD12C7601882309F4EBCE25968CADA6
:105450009DADAEADBFAD2597CF57DF4F8883998304
:10546000AA83BB83C158D04089A99AA9E3969FAF6C
:105470008EAFE39788A9E1968FAFE1978DA99EA99A
:10548000AFA9B8ADE9968CAF9DAFAEAFBFAFE9970E
:105490001DA61FA661E0CE0183599F4F0E94830B7A
:1054A000009709F4BECEDC011D9623E1EDE4F0E0A7
:1054B000EC0FFD1F3D9601900D922A95E1F769963C
:1054C0002FAD6997FC012387C114D104E104F104D5
:1054D00009F469C0E596EEADFFADE5978481B701AB
:1054E000A601425051096109710904C0440F551FBA
:1054F000661F771F8A95D2F780899189A289B3891F
:10550000480F591F6A1F7B1F20E0CF0180960E9421
:105510009E07FC01892B09F484CE90E2B096DE014F
:10552000A35BBF4F01900D929A95E1F7B701A601D9
:10553000E5968EAD9FADE5970E94520A882309F447
:1055400070CEE596EEADFFADE597C757DF4F4881CA
:1055500059816A817B81C958D04042505109610903
:105560007109848104C0440F551F661F771F8A95F7
:10557000D2F780899189A289B389480F591F6A1F80
:105580007B1F21E0CF0180960E949E07DC01892BC2
:1055900009F447CE90E2FE01E35BFF4F9096019045
:1055A0000D929A95E1F71D8E1E8E1F8E18A282E035
:1055B0008B8388E08983CE0101960E94C8168823D8
:1055C00009F42FCEE5968EAD9FADE5970E94A90C0C
:1055D000811138CE26CE40E0B701CE018D960E94D3
:1055E000FD1E882309F41DCE2D96CCACDDACEEACAF
:1055F000FFAC2D972BCF833509F042C08091180264
:1056000081110FCE81E00E94C710809107028111A5
:1056100018C00BE911E0F8016491662341F088E7B6
:1056200093E00E9443030F5F1F4F892BA1F742E0D5
:1056300050E06FE671E088E793E00E94C4038EE3D8
:10564000F1CD80E00E94841F8C010E94251E8823DA
:10565000B1F319821A821B8221E0A8016CE676E080
:10566000CE0101960E94A21D882309F4DACDCE0155
:1056700001960E94C816882309F4D3CD81E0D2CDCB
:10568000893419F40E9402283CCD853539F5909172
:10569000D50127EB290F223020F40E94022889E44B
:1056A000C1CD9033D9F49091D6019E3369F4209105
:1056B000D70138EF320F323038F481E0283009F06A
:1056C00080E00E9416281DCD9F739F3139F483E03E
:1056D0000E94C71086E080934E0213CD909118026D
:1056E000992309F42ACE853509F027CE8091D5017A
:1056F000803309F022CE8091D701809307028091F8
:10570000D801809308028091D90180930902809189
:10571000D601982F9F739F3311F489E0DCCF81115C
:1057200002C08AE0D8CF823009F007CE8BE0D3CF19
:105730001F920F920FB60F9211242F933F934F9306
:105740005F936F937F938F939F93AF93BF93EF93E9
:10575000FF9388E793E00E942103FF91EF91BF91AF
:10576000AF919F918F917F916F915F914F913F91F9
:105770002F910F900FBE0F901F9018951F920F92B0
:105780000FB60F9211242F938F939F93EF93FF9354
:10579000E0918803F09189038081E0918E03F0917C
:1057A0008F0382FD1BC09081809191038F5F8F7367
:1057B00020919203821741F0E0919103F0E0E858C4
:1057C000FC4F958F80939103FF91EF919F918F9163
:1057D0002F910F900FBE0F901F9018958081F4CFDE
:1057E0001F920F920FB60F9211242F933F938F9316
:1057F0009F93AF93BF938091C9019091CA01A091EB
:10580000CB01B091CC013091C80123E0230F2D379B
:1058100058F50196A11DB11D2093C8018093C901BF
:105820009093CA01A093CB01B093CC018091CD019C
:105830009091CE01A091CF01B091D0010196A11D10
:10584000B11D8093CD019093CE01A093CF01B09371
:10585000D001BF91AF919F918F913F912F910F9068
:105860000FBE0F901F90189526E8230F0296A11DDA
:10587000B11DD2CFE8E7F3E01382128288EE93E005
:10588000A0E0B0E084839583A683B7838FE591E0A1
:105890009183808385EC90E09587848784EC90E009
:1058A0009787868780EC90E0918B808B81EC90E0ED
:1058B000938B828B82EC90E0958B848B86EC90E0CE
:1058C000978B868B118E128E138E148EE1E4F4E08A
:1058D000158212A211A210A28FEF9FEFDC0183A309
:1058E00094A3A5A3B6A310926C0610926D06109215
:1058F0006E0610928D0610928C0610928F061092F2
:105900008E0680E580939006109291061092920682
:10591000109293068AE28093940610929506109254
:105920009606109297061092980610929906109279
:105930009A0610929B0610929C0610929D0685E195
:1059400094E00C94FA0DCF93DF93CDB7DEB7CA5530
:10595000D1090FB6F894DEBF0FBECDBF789484B5E1
:10596000826084BD84B5816084BD85B5826085BD5B
:1059700085B5816085BD80916E00816080936E00E9
:1059800010928100809181008260809381008091DB
:10599000810081608093810080918000816080938C
:1059A00080008091B10084608093B1008091B0004C
:1059B00081608093B00080917A00846080937A0047
:1059C00080917A00826080937A0080917A00816071
:1059D00080937A0080917A00806880937A00109298
:1059E000C1000E94BA044B015C01B4E1CB2ED12C62
:1059F000E12CF12C0E94BA04681979098A099B09E3
:105A0000683E734081059105A8F321E0C21AD108D0
:105A1000E108F10888EE880E83E0981EA11CB11CF5
:105A2000C114D104E104F10429F785E10E94A8041E
:105A30008835924008F00EC11092400162E083E187
:105A40000E946C040E941A04809341010E94DF04AA
:105A500060934F02709350028093510290935202D0
:105A600062E081E10E946C0461E080E10E946C04CC
:105A700061E08EE00E946C0461E08FE00E946C04A3
:105A800061E082E10E946C0461E082E10E943E04D8
:105A90000E94C60D80E00E94990D81E00E945C0D7D
:105AA00090E080E00E949930898381E090E00E943C
:105AB00099308A8389819A818A3A954529F482E0CE
:105AC00090E00E949930811181E0682F82E10E946C
:105AD0003E040E94BB1089E40E946C2410924E0286
